:060000000A128A11122809
:10000800FE00030EF6000408F7000A08F800831241
:1000180003137F08F9000A128A118F280A128A111D
:1000280053297A1083120313A8011530700203189C
:100038001E281F284F28A80104302802031C252841
:10004800262828288E288E280130A700280A2E283E
:100058000310A70DFF3E031D2C282708860028083B
:10006800203E840083130008880000000000000080
:100078000000000000000000831203138601013015
:10008800A7002708A80704302802031C4C284D287D
:1000980028288E288E2814307002031C54285528CE
:1000A8008E282930700203185A285B288E28F00100
:1000B8007208203E840083138001A80104302802BE
:1000C800031C672868286A288E288E288801000063
:1000D80000000000013083120313A700280A7628C5
:1000E8000310A70DFF3E031D742827088600280863
:1000F800203E84008313000888000130A7002708E9
:10010800A80704302802031C8A288B286A288E280E
:100118008E288E2808000C1D92289328D728103086
:1001280086060130F5007508F4077A142830740241
:10013800031C9F28A028D528F401FA15071CA52818
:10014800A628BB287A19A928AA28BB280130F500B7
:100158007508F3077A19B128B228D5280530730233
:10016800031CB728B828D5287A15D528D528071804
:10017800BE28BF28D0287A1DC228C328D02801301D
:10018800F5007508F10705307102031CCC28CD284D
:10019800D5287A11D528D528F301A401F101D5284D
:1001A800D5280C11D7287908FF0078088A00770825
:1001B8008400760E8300FE0E7E0E09008312031360
:1001C800A800FA11A901A90104302902031CED288D
:1001D800EE28F02810291029280884008313000825
:1001E800013E84000A128A1164210A128A11A700AA
:1001F8002908203E8400270880000230A70027082D
:10020800A8070130A7002708A90704302902031C02
:100218000E290F29F028102908000A128A11362100
:100228000A128A118B170B1719298312031310143A
:100238007A1C1F29202926290A128A1115200A1238
:100248008A112629FA1D29292A29192925300A124D
:100258008A11E2200A128A111929192919290A1260
:100268008A111228831603138801860107140910BE
:100278008312031309108801FF3086002030900094
:100288008F018E010B309700831603130C15831210
:1002980003130C1161309600A83095000800FA018C
:1002A800F001F101F201F301F401A001A101A201A1
:1002B800A301A401A501A60183010A128A1111292B
:1002C80001308A000408840A820700343F34063467
:1002D8005B344F3466346D347D3407347F3467348F
:00000001FF
